:100000000C942A000C9447000C9447000C94470071
:100010000C9447000C9447000C9447000C94470044
:100020000C9447000C9447000C9447000C94470034
:100030000C9447000C9447000C9447000C94470024
:100040000C9447000C9447000C9447000C94470014
:100050000C94470011241FBECFE5D8E0DEBFCDBF12
:1000600010E0A0E6B0E0E2E3F6E002C005900D92F9
:10007000A036B107D9F710E0A0E6B0E001C01D92AC
:10008000A036B107E1F70E9459020C9417030C94B3
:10009000000090E070E040E050E00E9453000895BE
:1000A0000E9467010895843409F471C0853448F4CE
:1000B000823499F1833408F04DC0813409F083C053
:1000C0000FC0823651F1833620F4813609F07BC0AF
:1000D00007C0833609F43EC0843609F074C057C0A7
:1000E000413069F44AB321E030E0C901062E02C074
:1000F000880F991F0A94E2F7842B8ABB10C04AB379
:1001000021E030E0C901062E02C0880F991F0A9431
:10011000E2F7809584238ABB0FC0413069F427B38E
:1001200081E090E0AC0102C0440F551F6A95E2F7F0
:10013000BA01622B67BB089527B381E090E0AC0160
:1001400002C0440F551F6A95E2F7BA016095622319
:1001500067BB0895413069F424B381E090E0AC01BD
:1001600002C0440F551F6A95E2F7BA01622B64BBC7
:10017000089524B381E090E0AC0102C0440F551F04
:100180006A95E2F7BA016095622364BB0895413035
:1001900069F421B381E090E0AC0102C0440F551F27
:1001A0006A95E2F7BA01622B61BB089521B381E041
:1001B00090E0AC0102C0440F551F6A95E2F7BA0106
:1001C0006095622361BB0895823451F1833420F439
:1001D000813409F07BC007C0833409F43EC0843405
:1001E00009F074C057C0413069F42BB381E090E04E
:1001F000AC0102C0440F551F6A95E2F7BA01622BA9
:100200006BBB08952BB381E090E0AC0102C0440FBA
:10021000551F6A95E2F7BA01609562236BBB08959A
:10022000413069F428B381E090E0AC0102C0440F92
:10023000551F6A95E2F7BA01622B68BB089528B38F
:1002400081E090E0AC0102C0440F551F6A95E2F7CF
:10025000BA016095622368BB0895413069F425B303
:1002600081E090E0AC0102C0440F551F6A95E2F7AF
:10027000BA01622B65BB089525B381E090E0AC0123
:1002800002C0440F551F6A95E2F7BA0160956223D8
:1002900065BB0895413069F422B381E090E0AC0180
:1002A00002C0440F551F6A95E2F7BA01622B62BB88
:1002B000089522B381E090E0AC0102C0440F551FC5
:1002C0006A95E2F7BA016095622362BB08958234B1
:1002D000F1F0833420F4813409F04FC006C0833438
:1002E00041F1843409F049C036C029B381E090E07F
:1002F000062E02C0880F991F0A94E2F730E082238D
:10030000932302C0959587956A95E2F7089526B3E1
:1003100081E090E0062E02C0880F991F0A94E2F750
:1003200030E08223932302C0959587956A95E2F782
:10033000089523B381E090E0062E02C0880F991F34
:100340000A94E2F730E08223932302C095958795C3
:100350006A95E2F7089520B381E090E0062E02C08E
:10036000880F991F0A94E2F730E08223932302C09A
:10037000959587956A95E2F7089580E0089582340F
:10038000B9F0833418F48134C9F505C08334E9F039
:100390008434A1F527C02BB381E090E0AC0102C00A
:1003A000440F551F6A95E2F7BA0162276BBB0895A7
:1003B00028B381E090E0AC0102C0440F551F6A955C
:1003C000E2F7BA01622768BB089525B381E090E0A7
:1003D000AC0102C0440F551F6A95E2F7BA016227CB
:1003E00065BB089522B381E090E0AC0102C0440FE8
:1003F000551F6A95E2F7BA01622762BB08958234FD
:1004000061F0833418F4813469F405C0833439F021
:10041000843441F406C06ABB089567BB089564BB89
:10042000089561BB0895823461F0833418F48134F7
:1004300069F405C0833439F0843441F406C06BBBE1
:10044000089568BB089565BB089562BB0895823422
:1004500061F0833418F4813471F405C0833439F0C9
:10046000843449F406C089B3089586B3089583B3EC
:10047000089580B3089580E00895823471F0833444
:1004800018F48134A9F405C0833459F0843481F41C
:100490000CC08BB380958BBB089588B3809588BBC7
:1004A000089585B3809585BB089582B3809582BBFE
:1004B000089581E46FEF0E94FF0182E460E00E94F2
:1004C000FF0184E46FEF0E94FF0182E460E00E947C
:1004D000490084E462E041E00E94E40084E463E0D7
:1004E00041E00E94E40082E460E00E94500082E467
:1004F00060E00E945000882321F581E460E040E044
:100500000E94E40081E461E040E00E94E40081E4B4
:1005100062E041E00E94E40081E463E040E00E9488
:10052000E40081E464E041E00E94E40084E460E0EF
:1005300041E00E94E40084E465E041E00E94E400C0
:10054000D6CF8FEF99E6A8E181509040A040E1F727
:1005500000C0000081E460E040E00E94E40081E42B
:1005600061E041E00E94E40081E462E040E00E943A
:10057000E40084E460E041E00E94E40084E465E09B
:1005800041E00E94E4008FEF99E6A8E1815090409D
:10059000A040E1F700C0000081E460E041E00E947B
:1005A000E40081E461E040E00E94E40081E462E074
:1005B00040E00E94E40081E463E041E00E94E40046
:1005C00081E464E040E00E94E40084E460E040E014
:1005D0000E94E40084E465E040E00E94E40082E4DC
:1005E00060E00E9450008823D1F78FEF99E6A8E1E0
:1005F00081509040A040E1F700C0000081E460E03D
:1006000040E00E94E40081E461E041E00E94E400F7
:1006100081E462E040E00E94E4008FEF99E6A8E107
:1006200081509040A040E1F700C0000060CFF894F6
:02063000FFCFFA
:00000001FF
