:100000000C942A000C9447000C9447000C94470071
:100010000C9447000C9447000C9447000C94470044
:100020000C9447000C9447000C9447000C94470034
:100030000C9447000C9447000C9447000C94470024
:100040000C9447000C9447000C9447000C94470014
:100050000C94470011241FBECFE5D8E0DEBFCDBF12
:1000600010E0A0E6B0E0EEE0FBE002C005900D92EB
:10007000AE36B107D9F710E0AEE6B0E001C01D9290
:10008000A137B107E1F70E94FA030C9485050C949F
:1000900000003E9A379A3F9A329A319A0895369ADA
:1000A0003699FECF84B190E045B1342F20E0822B09
:1000B000932B0895823451F1833420F4813409F074
:1000C0007BC007C0833409F43EC0843409F074C097
:1000D00057C0413069F42AB381E090E0AC0102C01E
:1000E000440F551F6A95E2F7BA01622B6ABB089567
:1000F0002AB381E090E0AC0102C0440F551F6A951D
:10010000E2F7BA01609562236ABB0895413069F451
:1001100027B381E090E0AC0102C0440F551F6A95FF
:10012000E2F7BA01622B67BB089527B381E090E044
:10013000AC0102C0440F551F6A95E2F7BA01609501
:10014000622367BB0895413069F424B381E090E0F5
:10015000AC0102C0440F551F6A95E2F7BA01622B49
:1001600064BB089524B381E090E0AC0102C0440F69
:10017000551F6A95E2F7BA016095622364BB089542
:10018000413069F421B381E090E0AC0102C0440F3A
:10019000551F6A95E2F7BA01622B61BB089521B33E
:1001A00081E090E0AC0102C0440F551F6A95E2F770
:1001B000BA016095622361BB0895823451F18334A2
:1001C00020F4813409F07BC007C0833409F43EC0B9
:1001D000843409F074C057C0413069F42BB381E016
:1001E00090E0AC0102C0440F551F6A95E2F7BA01D6
:1001F000622B6BBB08952BB381E090E0AC0102C091
:10020000440F551F6A95E2F7BA01609562236BBBF4
:100210000895413069F428B381E090E0AC0102C058
:10022000440F551F6A95E2F7BA01622B68BB089527
:1002300028B381E090E0AC0102C0440F551F6A95DD
:10024000E2F7BA016095622368BB0895413069F412
:1002500025B381E090E0AC0102C0440F551F6A95C0
:10026000E2F7BA01622B65BB089525B381E090E007
:10027000AC0102C0440F551F6A95E2F7BA016095C0
:10028000622365BB0895413069F422B381E090E0B8
:10029000AC0102C0440F551F6A95E2F7BA01622B08
:1002A00062BB089522B381E090E0AC0102C0440F2C
:1002B000551F6A95E2F7BA016095622362BB089503
:1002C0008234F1F0833420F4813409F04FC006C049
:1002D000833441F1843409F049C036C029B381E048
:1002E00090E0062E02C0880F991F0A94E2F730E0D2
:1002F0008223932302C0959587956A95E2F7089526
:1003000026B381E090E0062E02C0880F991F0A9460
:10031000E2F730E08223932302C0959587956A9592
:10032000E2F7089523B381E090E0062E02C0880F23
:10033000991F0A94E2F730E08223932302C0959537
:1003400087956A95E2F7089520B381E090E0062E44
:1003500002C0880F991F0A94E2F730E082239323AA
:1003600002C0959587956A95E2F7089580E0089513
:100370008234B9F0833418F48134C9F505C083346C
:10038000E9F08434A1F527C02BB381E090E0AC0103
:1003900002C0440F551F6A95E2F7BA0162276BBB92
:1003A000089528B381E090E0AC0102C0440F551FCE
:1003B0006A95E2F7BA01622768BB089525B381E028
:1003C00090E0AC0102C0440F551F6A95E2F7BA01F4
:1003D000622765BB089522B381E090E0AC0102C0C2
:1003E000440F551F6A95E2F7BA01622762BB089570
:1003F000823461F0833418F4813469F405C08334A5
:1004000039F0843441F406C06ABB089567BB08958F
:1004100064BB089561BB0895823461F0833418F49D
:10042000813469F405C0833439F0843441F406C062
:100430006BBB089568BB089565BB089562BB0895C2
:10044000823461F0833418F4813471F405C083344C
:1004500039F0843449F406C089B3089586B3089509
:1004600083B3089580B3089580E00895823451F1F4
:10047000833420F4813409F07BC007C0833409F44D
:100480003EC0843409F074C057C0413069F42BB3C6
:1004900081E090E0AC0102C0440F551F6A95E2F77D
:1004A000BA01622B6BBB08952BB381E090E0AC01E5
:1004B00002C0440F551F6A95E2F7BA0160956223A6
:1004C0006BBB0895413069F428B381E090E0AC0142
:1004D00002C0440F551F6A95E2F7BA01622B68BB50
:1004E000089528B381E090E0AC0102C0440F551F8D
:1004F0006A95E2F7BA016095622368BB08954130BE
:1005000069F425B381E090E0AC0102C0440F551FAF
:100510006A95E2F7BA01622B65BB089525B381E0C5
:1005200090E0AC0102C0440F551F6A95E2F7BA0192
:100530006095622365BB0895413069F422B381E080
:1005400090E0AC0102C0440F551F6A95E2F7BA0172
:10055000622B62BB089522B381E090E0AC0102C03F
:10056000440F551F6A95E2F7BA016095622362BB9A
:1005700008956F70823481F0833418F48134F1F47B
:1005800005C0833479F08434C9F412C08BB3807F02
:100590008BBB8BB3862B8BBB88B3807F88BB88B328
:1005A000862B88BB85B3807F85BB85B3862B85BBB7
:1005B00082B3807F82BB82B3682B62BB0895629551
:1005C000607F823481F0833418F48134F1F405C003
:1005D000833479F08434C9F412C08BB38F708BBB31
:1005E0008BB3862B8BBB88B38F7088BB88B3862B6D
:1005F00088BB85B38F7085BB85B3862B85BB82B3E3
:100600008F7082BB82B3682B62BB089582E460E086
:1006100041E00E94DD008FE99FE00197F1F700C003
:10062000000082E460E040E00E94DD008FE99FE08E
:100630000197F1F700C000000895CF93C82F682FED
:1006400062956F7081E40E94DF0282E461E040E025
:100650000E94DD000E94060381E46C2F0E94DF02ED
:1006600082E461E040E00E94DD000E9406038FEC1E
:1006700097E00197F1F700C00000CF9108958FEF48
:1006800091EEA4E081509040A040E1F700C000004E
:1006900081E464E041E00E945A0081E465E041E0C9
:1006A0000E945A0081E466E041E00E945A0081E421
:1006B00067E041E00E945A0082E460E041E00E946D
:1006C0005A0082E462E041E00E945A0082E461E064
:1006D00041E00E945A0082E462E040E00E94DD00B6
:1006E00082E00E941D03AFE1BEE41197F1F700C064
:1006F000000088E20E941D038FEC97E00197F1F75C
:1007000000C000008CE00E941D03AFECB7E0119721
:10071000F1F700C0000081E00E941D038FE19EE41C
:100720000197F1F700C0000086E00E941D03AFECC6
:10073000B7E01197F1F700C000000895CF93C82FDC
:10074000682F62956F7081E40E94DF0282E461E0AD
:1007500041E00E94DD000E94060381E46C2F0E94AC
:10076000DF0282E461E041E00E94DD000E940603B6
:100770008FEC97E00197F1F700C00000CF9108954A
:10078000CF93DF93EC018881882331F021960E947A
:100790009E0389918823D9F7DF91CF91089581E055
:1007A0000E941D038FE19EE40197F1F700C0000055
:1007B0000895282F2150223070F4613170F466239F
:1007C00071F0813019F4962F91580AC0823041F4AB
:1007D000962F915405C090E803C090E801C090E8BE
:1007E000892F0E941D038FEC97E00197F1F700C05D
:1007F000000008950E943F030E94490080E690E0B7
:100800000E94C0030EE610E0CAE0D0E00E944F0054
:10081000BC0180E090E00E94800420E030E040E8ED
:100820005EE30E94E6040E945404AB01BC015093B5
:100830006F0040936E004A30510598F481E06DE0FE
:100840000E94D90380E20E949E03F8018081805DAE
:100850000E949E038FED0E949E0383E60E949E03EA
:10086000D5CF4436510590F681E06DE00E94D90362
:1008700080916E0090916F00BE010E947105862FDD
:10088000805D0E949E0380916E0090916F00BE017A
:100890000E947105805D0E949E038FED0E949E0361
:1008A00083E60E949E03B2CF70D088F09F5790F0ED
:1008B000B92F9927B751A0F0D1F0660F771F881F85
:1008C000991F1AF0BA95C9F712C0B13081F077D0EC
:1008D000B1E0089574C0672F782F8827B85F39F08A
:1008E000B93FCCF3869577956795B395D9F73EF4E4
:1008F00090958095709561957F4F8F4F9F4F08958C
:10090000E89409C097FB3EF49095809570956195A9
:100910007F4F8F4F9F4F9923A9F0F92F96E9BB275F
:100920009395F695879577956795B795F111F8CFDB
:10093000FAF4BB0F11F460FF1BC06F5F7F4F8F4F46
:100940009F4F16C0882311F096E911C0772321F03C
:100950009EE8872F762F05C0662371F096E8862FD4
:1009600070E060E02AF09A95660F771F881FDAF72B
:10097000880F9695879597F9089557FD9058440FDD
:10098000551F59F05F3F71F04795880F97FB991FEE
:1009900061F09F3F79F087950895121613061406AB
:1009A000551FF2CF4695F1DF08C016161706180638
:1009B000991FF1CF86957105610508940895E89413
:1009C000BB2766277727CB0197F908950BD078C00E
:1009D00069D028F06ED018F0952309F05AC05FC096
:1009E0001124EECFCADFA0F3959FD1F3950F50E00D
:1009F000551F629FF001729FBB27F00DB11D639FD1
:100A0000AA27F00DB11DAA1F649F6627B00DA11D76
:100A1000661F829F2227B00DA11D621F739FB00D1C
:100A2000A11D621F839FA00D611D221F749F33278C
:100A3000A00D611D231F849F600D211D822F762F25
:100A40006A2F11249F5750408AF0E1F088234AF022
:100A5000EE0FFF1FBB1F661F771F881F915050406E
:100A6000A9F79E3F510570F014C0AACF5F3FECF389
:100A7000983EDCF3869577956795B795F795E7955A
:100A80009F5FC1F7FE2B880F911D9695879597F96B
:100A9000089597F99F6780E870E060E008959FEF00
:100AA00080EC089500240A94161617061806090605
:100AB000089500240A9412161306140605060895D4
:100AC000092E0394000C11F4882352F0BB0F40F45C
:100AD000BF2B11F460FF04C06F5F7F4F8F4F9F4F9C
:100AE0000895AA1BBB1B51E107C0AA1FBB1FA61775
:100AF000B70710F0A61BB70B881F991F5A95A9F7C7
:0E0B000080959095BC01CD010895F894FFCF2B
:0E0B0E0074656D70657261747572653D0000EE
:00000001FF
