:100000000C942A000C9447000C9447000C94470071
:100010000C9447000C9447000C9447000C94470044
:100020000C9447000C9447000C940E050C94470068
:100030000C9447000C9447000C9447000C94470024
:100040000C9447000C9447000C9447000C94470014
:100050000C94470011241FBECFE5D8E0DEBFCDBF12
:1000600010E0A0E6B0E0EAE5FAE002C005900D92EB
:10007000A639B107D9F710E0A6E9B0E001C01D929A
:10008000A739B107E1F70E9441040C942B050C94A9
:100090000000823451F1833420F4813409F07BC0B4
:1000A00007C0833409F43EC0843409F074C057C0DB
:1000B000413069F42AB381E090E0AC0102C0440F02
:1000C000551F6A95E2F7BA01622B6ABB08952AB3FD
:1000D00081E090E0AC0102C0440F551F6A95E2F741
:1000E000BA01609562236ABB0895413069F427B371
:1000F00081E090E0AC0102C0440F551F6A95E2F721
:10010000BA01622B67BB089527B381E090E0AC0190
:1001100002C0440F551F6A95E2F7BA016095622349
:1001200067BB0895413069F424B381E090E0AC01ED
:1001300002C0440F551F6A95E2F7BA01622B64BBF7
:10014000089524B381E090E0AC0102C0440F551F34
:100150006A95E2F7BA016095622364BB0895413065
:1001600069F421B381E090E0AC0102C0440F551F57
:100170006A95E2F7BA01622B61BB089521B381E071
:1001800090E0AC0102C0440F551F6A95E2F7BA0136
:100190006095622361BB0895823451F1833420F469
:1001A000813409F07BC007C0833409F43EC0843435
:1001B00009F074C057C0413069F42BB381E090E07E
:1001C000AC0102C0440F551F6A95E2F7BA01622BD9
:1001D0006BBB08952BB381E090E0AC0102C0440FEB
:1001E000551F6A95E2F7BA01609562236BBB0895CB
:1001F000413069F428B381E090E0AC0102C0440FC3
:10020000551F6A95E2F7BA01622B68BB089528B3BF
:1002100081E090E0AC0102C0440F551F6A95E2F7FF
:10022000BA016095622368BB0895413069F425B333
:1002300081E090E0AC0102C0440F551F6A95E2F7DF
:10024000BA01622B65BB089525B381E090E0AC0153
:1002500002C0440F551F6A95E2F7BA016095622308
:1002600065BB0895413069F422B381E090E0AC01B0
:1002700002C0440F551F6A95E2F7BA01622B62BBB8
:10028000089522B381E090E0AC0102C0440F551FF5
:100290006A95E2F7BA016095622362BB08958234E1
:1002A000F1F0833420F4813409F04FC006C0833468
:1002B00041F1843409F049C036C029B381E090E0AF
:1002C000062E02C0880F991F0A94E2F730E08223BD
:1002D000932302C0959587956A95E2F7089526B312
:1002E00081E090E0062E02C0880F991F0A94E2F781
:1002F00030E08223932302C0959587956A95E2F7B3
:10030000089523B381E090E0062E02C0880F991F64
:100310000A94E2F730E08223932302C095958795F3
:100320006A95E2F7089520B381E090E0062E02C0BE
:10033000880F991F0A94E2F730E08223932302C0CA
:10034000959587956A95E2F7089580E0089582343F
:10035000B9F0833418F48134C9F505C08334E9F069
:100360008434A1F527C02BB381E090E0AC0102C03A
:10037000440F551F6A95E2F7BA0162276BBB0895D7
:1003800028B381E090E0AC0102C0440F551F6A958C
:10039000E2F7BA01622768BB089525B381E090E0D7
:1003A000AC0102C0440F551F6A95E2F7BA016227FB
:1003B00065BB089522B381E090E0AC0102C0440F18
:1003C000551F6A95E2F7BA01622762BB089582342D
:1003D00061F0833418F4813469F405C0833439F052
:1003E000843441F406C06ABB089567BB089564BBBA
:1003F000089561BB0895823461F0833418F4813428
:1004000069F405C0833439F0843441F406C06BBB11
:10041000089568BB089565BB089562BB0895823452
:1004200061F0833418F4813471F405C0833439F0F9
:10043000843449F406C089B3089586B3089583B31C
:10044000089580B3089580E00895823451F1833493
:1004500020F4813409F07BC007C0833409F43EC026
:10046000843409F074C057C0413069F42BB381E083
:1004700090E0AC0102C0440F551F6A95E2F7BA0143
:10048000622B6BBB08952BB381E090E0AC0102C0FE
:10049000440F551F6A95E2F7BA01609562236BBB62
:1004A0000895413069F428B381E090E0AC0102C0C6
:1004B000440F551F6A95E2F7BA01622B68BB089595
:1004C00028B381E090E0AC0102C0440F551F6A954B
:1004D000E2F7BA016095622368BB0895413069F480
:1004E00025B381E090E0AC0102C0440F551F6A952E
:1004F000E2F7BA01622B65BB089525B381E090E075
:10050000AC0102C0440F551F6A95E2F7BA0160952D
:10051000622365BB0895413069F422B381E090E025
:10052000AC0102C0440F551F6A95E2F7BA01622B75
:1005300062BB089522B381E090E0AC0102C0440F99
:10054000551F6A95E2F7BA016095622362BB089570
:100550006F70823481F0833418F48134F1F405C073
:10056000833479F08434C9F412C08BB3807F8BBBA1
:100570008BB3862B8BBB88B3807F88BB88B3862BDD
:1005800088BB85B3807F85BB85B3862B85BB82B353
:10059000807F82BB82B3682B62BB08956295607FC7
:1005A000823481F0833418F48134F1F405C083344B
:1005B00079F08434C9F412C08BB38F708BBB8BB3CA
:1005C000862B8BBB88B38F7088BB88B3862B88BB88
:1005D00085B38F7085BB85B3862B85BB82B38F7047
:1005E00082BB82B3682B62BB089582E460E041E085
:1005F0000E94CC008FE99FE00197F1F700C0000056
:1006000082E460E040E00E94CC008FE99FE0019727
:10061000F1F700C000000895CF93C82F682F6295AE
:100620006F7081E40E94CE0282E461E040E00E94AB
:10063000CC000E94F50281E46C2F0E94CE0282E47D
:1006400061E040E00E94CC000E94F5028FEC97E050
:100650000197F1F700C00000CF9108958FEF91EE60
:10066000A4E081509040A040E1F700C0000081E488
:1006700064E041E00E94490081E465E041E00E94BD
:10068000490081E466E041E00E94490081E467E0BE
:1006900041E00E94490082E460E041E00E9449009C
:1006A00082E462E041E00E94490082E461E041E0CE
:1006B0000E94490082E462E040E00E94CC0082E0B7
:1006C0000E940C03AFE1BEE41197F1F700C00000F7
:1006D00088E20E940C038FEC97E00197F1F700C0CD
:1006E00000008CE00E940C03AFECB7E01197F1F72B
:1006F00000C0000081E00E940C038FE19EE401979E
:10070000F1F700C0000086E00E940C03AFECB7E0F8
:100710001197F1F700C000000895CF93C82F682FFC
:1007200062956F7081E40E94CE0282E461E041E054
:100730000E94CC000E94F50281E46C2F0E94CE0240
:1007400082E461E041E00E94CC000E94F5028FEC5F
:1007500097E00197F1F700C00000CF910895CF9383
:10076000DF93EC018881882331F021960E948D036C
:1007700089918823D9F7DF91CF91089581E00E9474
:100780000C038FE19EE40197F1F700C0000008958B
:10079000282F2150223070F4613170F4662371F0FB
:1007A000813019F4962F91580AC0823041F4962F67
:1007B000915405C090E803C090E801C090E8892FEB
:1007C0000E940C038FEC97E00197F1F700C0000046
:1007D000089541E00E944900089541E00E94CC0044
:1007E000089540E00E94CC0008950E94A70108955A
:1007F00083B7886083BF8EE48CBF83B7816083BF7B
:1008000083B7846083BF789489B7826089BF089575
:10081000BB9A83B7886083BF80E48CBF83B7816055
:1008200083BF83B7846083BF83B7806183BF08952C
:10083000BB9A83B7806483BF83B7886083BF80E43B
:100840008CBF83B7816083BF83B7846083BF83B766
:10085000806183BF83B7806283BF0895BB9A83B7EB
:10086000806483BF80E48CBF83B7816083BF83B71C
:10087000846083BF83B7806183BF83B7806283BF97
:10088000089584E460E00E94E90384E461E00E944A
:10089000E90384E462E00E94E9030E942E030E94BF
:1008A000F803CAE0D5E00F2EF7E0BF2EF02D00E6EA
:1008B00010E00F2EF1E7EF2EF0E0FF2EF02D0F2EBF
:1008C000F2E8CF2EF0E0DF2EF02DC0939500D0930C
:1008D0009400B09293000E94BE03C8010E94AF032F
:1008E00084E460E00E94ED031BC080919600843692
:1008F000B8F01092960080919500815080939500F9
:1009000081E06BE00E94C80380E20E948D03809129
:1009100095006C2F0E941F05892F805D0E948D031A
:1009200080919500882309F78FEF94E3ACE0815024
:100930009040A040E1F700C0000084E461E00E9424
:10094000ED0384E460E00E94F1030E94BE03C7014E
:100950000E94AF031BC0809196008436B8F01092BD
:1009600096008091940081508093940081E06BE028
:100970000E94C80380E20E948D03809194006C2F36
:100980000E941F05892F805D0E948D038091940035
:10099000882309F78FEF94E3ACE081509040A040AA
:1009A000E1F700C0000084E462E00E94ED0384E40B
:1009B00061E00E94F1030E94BE03C6010E94AF03E2
:1009C0001BC0809196008436B8F0109296008091FA
:1009D000930081508093930081E06BE00E94C803F4
:1009E00080E20E948D03809193006C2F0E941F056E
:1009F000892F805D0E948D0380919300882309F7E1
:100A00008FEF94E3ACE081509040A040E1F700C04C
:100A1000000084E462E00E94F10357CF1F920F921E
:100A20000FB60F9211248F93809196008F5F809361
:100A300096008F910F900FBE0F901F901895991BE5
:100A400079E004C0991F961708F0961B881F7A95C5
:0A0A5000C9F780950895F894FFCFD0
:100A5A0072656D61696E696E6720313020736563F6
:100A6A000072656D61696E696E6720203520736555
:100A7A00630072656D61696E696E67202037207345
:060A8A0065630007050A88
:00000001FF
