S00B000044494F2E737265633D
S11300000C942A000C9447000C9447000C9447006D
S11300100C9447000C9447000C9447000C94470040
S11300200C9447000C9447000C9447000C94470030
S11300300C9447000C9447000C9447000C94470020
S11300400C9447000C9447000C9447000C94470010
S11300500C94470011241FBECFE5D8E0DEBFCDBF0E
S113006010E0A0E6B0E0E8EBF6E002C005900D92E7
S1130070A036B107D9F710E0A0E6B0E001C01D92A8
S1130080A036B107E1F70E9449000C945A030C947E
S1130090000081E46FEF0E94000382E46FEF0E948E
S11300A00003C1E0D0E008E010E00F2EF7E0EF2EEF
S11300B0FF24F02D0F2EF9E0CF2EDD24F02DAA24FD
S11300C0BB24A3940F2EF3E08F2E9924F02D6624E5
S11300D07724689462F80F2EF5E04F2E5524F02D06
S11300E022243324689421F881E467E70E941403EE
S11300F08FEF99E6A8E181509040A040E1F700C05D
S1130100000081E464E20E9414038FEF99E6A8E101
S113011081509040A040E1F700C0000081E46DE50B
S11301200E9414038FEF99E6A8E181509040A0400B
S1130130E1F700C0000081E46DE60E9414038FEF34
S113014099E6A8E181509040A040E1F700C000008A
S113015081E46EE20E9414038FEF99E6A8E18150D6
S11301609040A040E1F700C0000081E46BE60E94EB
S113017014038FEF99E6A8E181509040A040E1F785
S113018000C0000081E46BE70E9414038FEF99E63E
S1130190A8E181509040A040E1F700C0000081E454
S11301A065E20E9414038FEF99E6A8E18150904024
S11301B0A040E1F700C0000081E46FE70E9414034F
S11301C08FEF99E6A8E181509040A040E1F700C08C
S11301D0000081E46FE60E9414038FEF99E6A8E122
S11301E081509040A040E1F700C00000C530D10527
S11301F0E1F1C630D1059CF4C230D10521F1C33000
S1130200D1052CF4C130D10509F06ECF16C0C3302E
S1130210D105F9F0C430D10509F066CF20C0C7304C
S1130220D10581F1C730D1053CF1C830D10581F148
S1130230C930D10509F058CF31C082E464E20E948C
S11302401403E10151CF82E46DE50E941403E4013B
S11302504BCF82E46DE60E941403E30145CF82E4B0
S11302606EE20E941403E2013FCF82E46BE60E9437
S11302701403C6E0D0E038CF82E46BE70E94140395
S1130280E70132CF82E465E20E941403E8012CCF37
S113029082E46FE70E941403E60126CF82E46FE64E
S11302A00E941403E50120CF843409F471C085341D
S11302B048F4823499F1833408F04DC0813409F054
S11302C083C00FC0823651F1833620F4813609F0A1
S11302D07BC007C0833609F43EC0843609F074C07D
S11302E057C0413069F44AB321E030E0C901062E19
S11302F002C0880F991F0A94E2F7842B8ABB10C0AE
S11303004AB321E030E0C901062E02C0880F991FCC
S11303100A94E2F7809584238ABB0FC0413069F4C4
S113032027B381E090E0AC0102C0440F551F6A95E9
S1130330E2F7BA01622B67BB089527B381E090E02E
S1130340AC0102C0440F551F6A95E2F7BA016095EB
S1130350622367BB0895413069F424B381E090E0DF
S1130360AC0102C0440F551F6A95E2F7BA01622B33
S113037064BB089524B381E090E0AC0102C0440F53
S1130380551F6A95E2F7BA016095622364BB08952C
S1130390413069F421B381E090E0AC0102C0440F24
S11303A0551F6A95E2F7BA01622B61BB089521B328
S11303B081E090E0AC0102C0440F551F6A95E2F75A
S11303C0BA016095622361BB0895823451F183348C
S11303D020F4813409F07BC007C0833409F43EC0A3
S11303E0843409F074C057C0413069F42BB381E000
S11303F090E0AC0102C0440F551F6A95E2F7BA01C0
S1130400622B6BBB08952BB381E090E0AC0102C07A
S1130410440F551F6A95E2F7BA01609562236BBBDE
S11304200895413069F428B381E090E0AC0102C042
S1130430440F551F6A95E2F7BA01622B68BB089511
S113044028B381E090E0AC0102C0440F551F6A95C7
S1130450E2F7BA016095622368BB0895413069F4FC
S113046025B381E090E0AC0102C0440F551F6A95AA
S1130470E2F7BA01622B65BB089525B381E090E0F1
S1130480AC0102C0440F551F6A95E2F7BA016095AA
S1130490622365BB0895413069F422B381E090E0A2
S11304A0AC0102C0440F551F6A95E2F7BA01622BF2
S11304B062BB089522B381E090E0AC0102C0440F16
S11304C0551F6A95E2F7BA016095622362BB0895ED
S11304D08234F1F0833420F4813409F04FC006C033
S11304E0833441F1843409F049C036C029B381E032
S11304F090E0062E02C0880F991F0A94E2F730E0BC
S11305008223932302C0959587956A95E2F708950F
S113051026B381E090E0062E02C0880F991F0A944A
S1130520E2F730E08223932302C0959587956A957C
S1130530E2F7089523B381E090E0062E02C0880F0D
S1130540991F0A94E2F730E08223932302C0959521
S113055087956A95E2F7089520B381E090E0062E2E
S113056002C0880F991F0A94E2F730E08223932394
S113057002C0959587956A95E2F7089580E00895FD
S11305808234B9F0833418F48134C9F505C0833456
S1130590E9F08434A1F527C02BB381E090E0AC01ED
S11305A002C0440F551F6A95E2F7BA0162276BBB7C
S11305B0089528B381E090E0AC0102C0440F551FB8
S11305C06A95E2F7BA01622768BB089525B381E012
S11305D090E0AC0102C0440F551F6A95E2F7BA01DE
S11305E0622765BB089522B381E090E0AC0102C0AC
S11305F0440F551F6A95E2F7BA01622762BB08955A
S1130600823461F0833418F4813469F405C083348E
S113061039F0843441F406C06ABB089567BB089579
S113062064BB089561BB0895823461F0833418F487
S1130630813469F405C0833439F0843441F406C04C
S11306406BBB089568BB089565BB089562BB0895AC
S1130650823461F0833418F4813471F405C0833436
S113066039F0843449F406C089B3089586B30895F3
S113067083B3089580B3089580E00895823471F0BF
S1130680833418F48134A9F405C0833459F08434D4
S113069081F40CC08BB380958BBB089588B380958F
S11306A088BB089585B3809585BB089582B38095F2
S10B06B082BB0895F894FFCF0A
S9030000FC
