:100000000C942A000C9447000C9447000C94470071
:100010000C9447000C9447000C9447000C94470044
:100020000C9447000C9447000C9447000C94470034
:100030000C9447000C9447000C9447000C94470024
:100040000C9447000C9447000C9447000C94470014
:100050000C94470011241FBECFE5D8E0DEBFCDBF12
:1000600010E0A0E6B0E0E0EDF7E002C005900D92F0
:10007000A037B107D9F710E0A0E7B0E001C01D92AA
:10008000A037B107E1F70E9489030C94E6030C94B2
:100090000000823451F1833420F4813409F07BC0B4
:1000A00007C0833409F43EC0843409F074C057C0DB
:1000B000413069F42AB381E090E0AC0102C0440F02
:1000C000551F6A95E2F7BA01622B6ABB08952AB3FD
:1000D00081E090E0AC0102C0440F551F6A95E2F741
:1000E000BA01609562236ABB0895413069F427B371
:1000F00081E090E0AC0102C0440F551F6A95E2F721
:10010000BA01622B67BB089527B381E090E0AC0190
:1001100002C0440F551F6A95E2F7BA016095622349
:1001200067BB0895413069F424B381E090E0AC01ED
:1001300002C0440F551F6A95E2F7BA01622B64BBF7
:10014000089524B381E090E0AC0102C0440F551F34
:100150006A95E2F7BA016095622364BB0895413065
:1001600069F421B381E090E0AC0102C0440F551F57
:100170006A95E2F7BA01622B61BB089521B381E071
:1001800090E0AC0102C0440F551F6A95E2F7BA0136
:100190006095622361BB0895823451F1833420F469
:1001A000813409F07BC007C0833409F43EC0843435
:1001B00009F074C057C0413069F42BB381E090E07E
:1001C000AC0102C0440F551F6A95E2F7BA01622BD9
:1001D0006BBB08952BB381E090E0AC0102C0440FEB
:1001E000551F6A95E2F7BA01609562236BBB0895CB
:1001F000413069F428B381E090E0AC0102C0440FC3
:10020000551F6A95E2F7BA01622B68BB089528B3BF
:1002100081E090E0AC0102C0440F551F6A95E2F7FF
:10022000BA016095622368BB0895413069F425B333
:1002300081E090E0AC0102C0440F551F6A95E2F7DF
:10024000BA01622B65BB089525B381E090E0AC0153
:1002500002C0440F551F6A95E2F7BA016095622308
:1002600065BB0895413069F422B381E090E0AC01B0
:1002700002C0440F551F6A95E2F7BA01622B62BBB8
:10028000089522B381E090E0AC0102C0440F551FF5
:100290006A95E2F7BA016095622362BB08958234E1
:1002A000F1F0833420F4813409F04FC006C0833468
:1002B00041F1843409F049C036C029B381E090E0AF
:1002C000062E02C0880F991F0A94E2F730E08223BD
:1002D000932302C0959587956A95E2F7089526B312
:1002E00081E090E0062E02C0880F991F0A94E2F781
:1002F00030E08223932302C0959587956A95E2F7B3
:10030000089523B381E090E0062E02C0880F991F64
:100310000A94E2F730E08223932302C095958795F3
:100320006A95E2F7089520B381E090E0062E02C0BE
:10033000880F991F0A94E2F730E08223932302C0CA
:10034000959587956A95E2F7089580E0089582343F
:10035000B9F0833418F48134C9F505C08334E9F069
:100360008434A1F527C02BB381E090E0AC0102C03A
:10037000440F551F6A95E2F7BA0162276BBB0895D7
:1003800028B381E090E0AC0102C0440F551F6A958C
:10039000E2F7BA01622768BB089525B381E090E0D7
:1003A000AC0102C0440F551F6A95E2F7BA016227FB
:1003B00065BB089522B381E090E0AC0102C0440F18
:1003C000551F6A95E2F7BA01622762BB089582342D
:1003D00061F0833418F4813469F405C0833439F052
:1003E000843441F406C06ABB089567BB089564BBBA
:1003F000089561BB0895823461F0833418F4813428
:1004000069F405C0833439F0843441F406C06BBB11
:10041000089568BB089565BB089562BB0895823452
:1004200061F0833418F4813471F405C0833439F0F9
:10043000843449F406C089B3089586B3089583B31C
:10044000089580B3089580E00895823451F1833493
:1004500020F4813409F07BC007C0833409F43EC026
:10046000843409F074C057C0413069F42BB381E083
:1004700090E0AC0102C0440F551F6A95E2F7BA0143
:10048000622B6BBB08952BB381E090E0AC0102C0FE
:10049000440F551F6A95E2F7BA01609562236BBB62
:1004A0000895413069F428B381E090E0AC0102C0C6
:1004B000440F551F6A95E2F7BA01622B68BB089595
:1004C00028B381E090E0AC0102C0440F551F6A954B
:1004D000E2F7BA016095622368BB0895413069F480
:1004E00025B381E090E0AC0102C0440F551F6A952E
:1004F000E2F7BA01622B65BB089525B381E090E075
:10050000AC0102C0440F551F6A95E2F7BA0160952D
:10051000622365BB0895413069F422B381E090E025
:10052000AC0102C0440F551F6A95E2F7BA01622B75
:1005300062BB089522B381E090E0AC0102C0440F99
:10054000551F6A95E2F7BA016095622362BB089570
:100550006F70823481F0833418F48134F1F405C073
:10056000833479F08434C9F412C08BB3807F8BBBA1
:100570008BB3862B8BBB88B3807F88BB88B3862BDD
:1005800088BB85B3807F85BB85B3862B85BB82B353
:10059000807F82BB82B3682B62BB08956295607FC7
:1005A000823481F0833418F48134F1F405C083344B
:1005B00079F08434C9F412C08BB38F708BBB8BB3CA
:1005C000862B8BBB88B38F7088BB88B3862B88BB88
:1005D00085B38F7085BB85B3862B85BB82B38F7047
:1005E00082BB82B3682B62BB089581E460E041E086
:1005F0000E94490081E461E041E00E94490081E4F9
:1006000062E041E00E94490081E463E041E00E9431
:10061000490081E464E040E00E94490081E465E033
:1006200040E00E94490081E466E040E00E94490009
:1006300081E467E040E00E94490081E464E041E039
:100640000E94250281E465E041E00E94250281E4E8
:1006500066E041E00E94250281E467E041E00E94FB
:10066000250208950F931F93CF93DF93CDB7DEB785
:1006700060970FB6F894DEBF0FBECDBFDE011196B6
:10068000E0E6F0E080E101900D928150E1F700E0BA
:1006900081E460E041E00E94CC0081E461E041E05F
:1006A0000E94CC0081E462E041E00E94CC0081E441
:1006B00063E041E00E94CC0081E4602F40E00E94B2
:1006C000CC0010E0612F6C5F81E40E944F01882311
:1006D00061F4E02FF0E0EE0FFF1FEE0FFF1FE10FC0
:1006E000F11DEC0FFD1F818104C01F5F143051F715
:1006F0000BC060960FB6F894DEBF0FBECDBFDF9182
:10070000CF911F910F9108950F5F043009F68FEF7D
:10071000F0CF0E94F5020E949D030E9432038F3F9A
:1007200011F00E94BC038FE79AE1A6E0815090404F
:10073000A040E1F700C00000F0CF82E464E041E0B7
:100740000E94490082E465E041E00E94490082E4A1
:1007500067E041E00E9449006C9A689A6E9A82E4D0
:1007600064E041E00E94CC0008956E9A82E466E065
:1007700041E00E9449000895CF93C82F82E464E0CD
:1007800040E00E94CC00CFB9779BFECF8FB1CF91D4
:1007900008958FB9779BFECF8FB10895CF93DF93E4
:1007A000EC018881882379F021960E94BC038FEFA9
:1007B00092E5A7E081509040A040E1F700C0000022
:1007C0008991882391F7DF91CF910895F894FFCF15
:1007D0003738392F3435362A3132332D41303D2BDD
:00000001FF
